:100000000C940A020C9432020C9432020C943202C8
:100010000C9432020C9432020C9432020C94320290
:100020000C9432020C9432020C9432020C94320280
:100030000C9432020C9432020C9432020C94320270
:100040000C94330E0C9432020C94A30E0C947D0E7F
:100050000C9432020C9432020C9432020C94320250
:100060000C94D50E0C943202000000000000006FCA
:1000700000000007000700147F147F148C92FF9289
:1000800062231308646236495620500000070000BE
:10009000001C2241000041221C0014083E081408E4
:1000A000083E0808005030000008080808080060F2
:1000B00060000020100804023E5149453E00427F86
:1000C000400042615149462141454B311814127F8D
:1000D0001027454545393C4A494930017109050316
:1000E0003649494936064949291E0036360000007E
:1000F0005636000008142241001414141414004150
:1001000022140802015109063E415D494E7E09094B
:10011000097E7F494949363E414141227F41414163
:100120003E7F494949417F090909013E4149497AD0
:100130007F0808087F00417F41002040413F017F48
:10014000081422417F404040407F020C027F7F0420
:1001500008107F3E4141413E7F090909063E415159
:10016000215E7F09192946464949493101017F012C
:10017000013F4040403F0F3040300F3F4030403F54
:100180006314081463070870080761514945430068
:10019000007F4100020408102000417F000004029B
:1001A0000102044040404040000003040020545439
:1001B00054787F48444438384444442038444448C0
:1001C0007F3854545418087E0901020C5252523E92
:1001D0007F0804047800447D40002040443D000036
:1001E0007F10284400417F40007C041804787C087C
:1001F00004047838444444387C1414140808141453
:10020000187C7C080404084854545420043F44409B
:10021000203C4040207C1C2040201C3C4030403C86
:1002200044281028440C5050503C4464544C440022
:100230000836414100007F000041413608000402B9
:100240000408047E1111117E7F494949337F4949D1
:1002500049367F01010103E0514F41FF7F49494980
:100260004177087F087741494949367F1008047F64
:100270007C2112097C7F0814224120413F017F7FAD
:10028000020C027F7F0808087F3E4141413E7F010A
:1002900001017F7F090909063E4141412201017F99
:1002A000010147281008071C227F221C6314081430
:1002B000637F404040FF070808087F7F407F407F02
:1002C0007F407F40FF017F4848307F4830007F00FB
:1002D0007F484830224149493E7F083E413E4629F9
:1002E00019097F20545454783C4A4A49317C54546B
:1002F00028007C04040C00E0544C44FC3854545452
:10030000186C107C106C44545428007C2010087C1D
:1003100078422412787C1028440020443C047C7CE1
:100320000810087C7C1010107C38444444387C044D
:1003300004047C7C14141408384444440004047CF1
:1003400004040C5050503C3048FE483044281028DB
:10035000447C40407CC00C1010107C7C407C407C75
:100360007C407C40FC047C5050207C5050207C7CA5
:100370005050200028445454387C103844380854D5
:1003800034147C3855545518005EBCE2613FDD835F
:10039000C29C7E20A3FD1F41009D23BE46DB65F865
:1003A0008C11AF32CA57E974AED5808D142001A1EB
:1003B000C8817FDB40A6AF00000000240027002A90
:1003C0000000000000250028002B000000000800AD
:1003D000020100000304070000000000000000000C
:1003E000000000230026002900040404040404047F
:1003F00004020202020202030303030303010204D4
:100400000810204080010204081020010204081096
:100410002000321011241FBECFEFD8E0DEBFCDBFC9
:1004200011E0A0E0B1E0E0ECFBE202C005900D922B
:10043000AA35B107D9F727E0AAE5B1E001C01D92BE
:10044000AC35B207E1F712E0CAE0D2E004C0219770
:10045000FE010E94A014C930D107C9F70E940D11F6
:100460000C94DE150C940000FC01538D448D252F57
:1004700030E0842F90E0821B930B541710F0CF963E
:10048000089501970895FC01918D828D981761F070
:10049000A28DAE0FBF2FB11D5D968C91928D9F5F87
:1004A0009F73928F90E008958FEF9FEF0895FC0166
:1004B000918D828D981731F0828DE80FF11D858D19
:1004C00090E008958FEF9FEF0895FC01918D228DAC
:1004D000892F90E0805C9F4F821B91098F73992731
:1004E0000895FC01A48DA80FB92FB11DA35ABF4FC9
:1004F0002C91848D90E001968F739927848FA68923
:10050000B7892C93A089B1898C91837080648C9376
:10051000938D848D981306C00288F389E02D808125
:100520008F7D80830895EF92FF920F931F93CF9357
:10053000DF93EC0181E0888F9B8D8C8D98131AC01E
:10054000E889F989808185FF15C09FB7F894EE8905
:10055000FF896083E889F989808183708064808362
:100560009FBF81E090E0DF91CF911F910F91FF90AD
:10057000EF900895F62E0B8D10E00F5F1F4F0F7355
:100580001127E02E8C8D8E110CC00FB607FCFACF10
:10059000E889F989808185FFF5CFCE010E9471023B
:1005A000F1CFEB8DEC0FFD2FF11DE35AFF4FF082E1
:1005B0009FB7F8940B8FEA89FB8980818062CFCF47
:1005C000CF93DF93EC01888D8823B9F0AA89BB898A
:1005D000E889F9898C9185FD03C0808186FD0DC075
:1005E0000FB607FCF7CF8C9185FFF2CF808185FF96
:1005F000EDCFCE010E947102E9CFDF91CF91089536
:1006000083E292E00E94650221E0892B09F420E058
:10061000822F089580E090E0892B29F00E9400034A
:1006200081110C940000089590E0FC01E553FC4F0B
:100630002491FC01E350FC4F3491FC01E751FC4F45
:10064000E491EE23C9F0222339F0233001F1A8F41C
:10065000213019F1223029F1F0E0EE0FFF1FEF53A6
:10066000FC4FA591B4918FB7F894EC91611126C01D
:1006700030953E233C938FBF08952730A9F0283052
:10068000C9F0243049F7809180008F7D03C08091AC
:1006900080008F7780938000DFCF84B58F7784BD13
:1006A000DBCF84B58F7DFBCF8091B0008F778093B7
:1006B000B000D2CF8091B0008F7DF9CF3E2BDACF42
:1006C000CF93DF9390E0FC01E350FC4F24918751DE
:1006D0009C4FFC0184918823C9F090E0880F991FFA
:1006E000FC01E954FC4FA591B491FC01EF53FC4F80
:1006F000C591D49161110DC09FB7F8948C9120954C
:1007000082238C938881282328839FBFDF91CF91F8
:100710000895623051F49FB7F8943C91822F8095F0
:1007200083238C93E8812E2BEFCF8FB7F894EC9135
:100730002E2B2C938FBFEACF3FB7F89480911B02EA
:1007400090911C02A0911D02B0911E0226B5A89B9B
:1007500005C02F3F19F00196A11DB11D3FBFBA2F53
:10076000A92F982F8827BC01CD01620F711D811D13
:10077000911D42E0660F771F881F991F4A95D1F798
:1007800008958F929F92AF92BF92CF92DF92EF9295
:10079000FF926B017C010E949C034B015C01C11420
:1007A000D104E104F104B9F00E949C0368197909AD
:1007B0008A099B09683E73408105910580F321E019
:1007C000C21AD108E108F10888EE880E83E0981E6D
:1007D000A11CB11CE4CFFF90EF90DF90CF90BF90B1
:1007E000AF909F908F9008952FB7F8946091170263
:1007F000709118028091190290911A022FBF0895EA
:1008000008950895AF92BF92CF92DF92EF92FF9238
:100810000F931F93CF93DF936C017B018B01040F28
:10082000151FEB015E01AE18BF08C017D10759F0C4
:100830006991D601ED91FC910190F081E02DC60106
:100840000995892B79F7C501DF91CF911F910F9100
:10085000FF90EF90DF90CF90BF90AF900895DC01B4
:1008600080E0615090F09D919827E92FEF70F0E0C3
:10087000E857FC4F2491E92FE295EF70F0E0E8563D
:10088000FC4FE491822F8E27ECCF0895DC012C9150
:100890001196ED91FC91F8948181822B8183928154
:1008A000322F30959323928387E090E00197F1F700
:1008B00081818323818383E290E00197F1F7908126
:1008C0007894EFECF0E03197F1F7922381E009F4AE
:1008D00080E00895FC0190810180F281E02D292FB4
:1008E000209560FF14C0F8948281822382838181E5
:1008F000892B8183A3E2B0E01197F1F78281982BD5
:100900009283789487ED90E00197F1F70895F89439
:100910008281822382838181892B8183AFEFB0E042
:100920001197F1F78281982B928378948FE090E071
:10093000EBCFDF92EF92FF920F931F93CF93DF9352
:10094000EC01D62EE42E08E010E0FF24F39461E0E1
:100950008D2D8F2109F460E0CE010E946A04FF0C06
:1009600001501109A1F7E11010C0F894E981FA8152
:1009700091818881809589238183E981FA8192819F
:1009800088818095892382837894DF91CF911F910C
:100990000F91FF90EF90DF900895EF92FF920F93E9
:1009A0001F93CF93DF938C017B0140E065E50E94AC
:1009B0009904E70188E0E80EF11C699140E0C80164
:1009C0000E949904CE15DF05C1F7DF91CF911F91E9
:1009D0000F91FF90EF900895FC0190810180F281CA
:1009E000E02DF8948181292F2095822381837894AA
:1009F0003DE743E050E0315029F1DA011197F1F77A
:100A000080818923C1F3F89482818223828381814A
:100A1000892B81837894ABE7B7E01197F1F7F894CD
:100A2000818182238183A3E1B1E01197F1F7808175
:100A3000982381E009F080E07894E3E6F6E03197CE
:100A4000F1F7089580E008956F927F928F929F92C0
:100A5000AF92BF92CF92DF92EF92FF920F931F93CC
:100A6000CF93DF938C01EB018091D5029091D60258
:100A70000E94EC04882309F43FC0B8018091D5029C
:100A80009091D6020E94CD0440E06EEB8091D50299
:100A90009091D6020E9499047E016E0189E0C80EF1
:100AA000D11C8E01A090D502B090D60288E0882E8D
:100AB000912C712C66246394C5010E944604811117
:100AC0007628660CE1E08E1A9108B1F7F801719270
:100AD0008F01CE16DF0631F78091D5029091D602B4
:100AE0000E94EC04813041F4F70181917F01811172
:100AF00005C0E017F107C1F790E008C068E0CE013B
:100B00000E942F0491E028852813F6CF892FDF91CA
:100B1000CF911F910F91FF90EF90DF90CF90BF90FA
:100B2000AF909F908F907F906F9008952091C1011A
:100B3000260F3327331F21323105ECF42091E501D4
:100B4000FC0190E080E0243069F082E00895A091FB
:100B5000C1012191AC014F555E4FA40FB52FB11DBE
:100B60002C930196861798F38091C101680F6093CA
:100B7000C10180E0089581E008951092E50181E0CF
:100B80008093E7011092E60161E082E10E94140384
:100B900061E083E10E941403E9EBF0E080818E7F45
:100BA000808380818D7F808388E48093B80085E492
:100BB0008093BC000895CF93DF9391E09093A001C0
:100BC0008823B9F0C091B800D091BA008091BC00E0
:100BD0008A7B8093BC0060E082E10E94140360E0A5
:100BE00083E10E9414030E94BD05D093BA00C09314
:100BF000B800DF91CF9108950895E091100280919F
:100C00000F02E81730F4F0E0E558FE4F808190E0E5
:100C100008958FEF9FEF08959091100280910F0239
:100C20002FEF3FEF981748F4E92FF0E0E558FE4F1B
:100C3000208130E09F5F90931002C9010895809158
:100C40000F0290911002891B990B0895CF92DF92A9
:100C5000EF92FF920F931F93CF93DF937C01CB0111
:100C60008A0120912202222389F0EB016B01C40E3C
:100C7000D51ECC15DD0569F06991D701ED91FC9188
:100C80000190F081E02DC7010995F3CF642F0E94F8
:100C90009605C801DF91CF911F910F91FF90EF90C2
:100CA000DF90CF900895CF93DF931F92CDB7DEB73B
:100CB0006983209122022223F9F020911F02203221
:100CC00058F021E030E0FC013383228390E080E0A3
:100CD0000F90DF91CF91089580912002E82FF0E0EE
:100CE000E55AFE4F998190838F5F80932002809315
:100CF0001F0281E090E0ECCF61E0CE0101960E94FE
:100D00009605F7CF8F929F92AF92BF92CF92DF92CC
:100D1000EF92FF920F931F93CF93DF93EC018981A2
:100D200082FD14C085FD12C0EC89FD8920813E89B9
:100D300081FB992790F983FB882780F98927922FD7
:100D4000932321E009F020E082278A8B0E94F4039C
:100D5000AB01BC019A892B898881992309F47BC056
:100D6000211179C080FD5DC0816088834E875F87D7
:100D7000688B798B8B89882319F1992309F10D816F
:100D80001E8130E020E0CE84DF84E888F9884A01C3
:100D90005B018C189D08AE08BF0875016401C01680
:100DA000D106E206F30660F0888181FD09C02B853B
:100DB0002D878A648F7788834E875F87688B798BCE
:100DC0000E851F8528893989401B510B620B730BD7
:100DD0000F81188530E020E0401751076207730744
:100DE00050F08B85882339F0911105C08C871B86C4
:100DF000888184608883898186FF06C01C869881EB
:100E00009B7F98838F7B8983DF91CF911F910F9177
:100E1000FF90EF90DF90CF90BF90AF909F908F901A
:100E200008950E851F85288939896A017B01C01ABA
:100E3000D10AE20AF30A0B811C8130E020E0C016DF
:100E4000D106E206F30608F4BBCF21E02B8B8062CB
:100E5000806888838FCF8E7F888391118BCF2223E8
:100E600009F4AECF1B8A81FD03C08B858F5F8B8712
:100E700088818D7F806188834E875F87688B798BBF
:100E800086FF04C01C861B868F7B8883888187FF32
:100E900097CF8F7788838981816089836BCFCF9249
:100EA000DF92EF92FF921F93CF93DF93EC01898142
:100EB00084FF03C0CE010E9482068B85882351F0F7
:100EC00010E0812FDF91CF911F91FF90EF90DF9085
:100ED000CF900895888186FB112710F986FFF0CF07
:100EE0000E94F403CE84DF84E888F988AB01BC015A
:100EF0004C195D096E097F0989859A85B0E0A0E0EB
:100F0000481759076A077B07D8F20E94F4036E87D7
:100F10007F87888B998BD5CF682F80EC92E00C94DB
:100F200053068091F50291E0909322028093210272
:100F30001092200210921F0280E00C948C078F9276
:100F40009F92AF92BF92CF92DF92EF92FF920F9358
:100F50001F93CF93DF938C01D0911F02D13208F001
:100F600094C0C09121020E949C036B017C0180917E
:100F7000E501811165C082E08093E50181E0809305
:100F8000E7018FEF8093E40110920902D0930802E9
:100F9000ABE5B1E0E8EEF1E080E0D8138FC010924D
:100FA0000A0280910A02CC0FC82BC0930A028091DA
:100FB000E601813009F086C01092E6010E949C0390
:100FC0006B017C0180910A028093BB0080919C019F
:100FD00090919D01A0919E01B0919F01892B8A2B38
:100FE0008B2B99F00E949C0380909C0190909D0116
:100FF000A0909E01B0909F016C197D098E099F09F8
:1010000086169706A806B906E0F18091BC0083FD1C
:10101000D9CF85EC8093BC000E949C036B017C01BE
:101020008091E501823009F44FC08091E4018F3F47
:1010300061F18091E401803241F18091E40125C0A9
:1010400080919C0190919D01A0919E01B0919F0182
:10105000892B8A2B8B2B09F48ACF0E949C038090CA
:101060009C0190909D01A0909E01B0909F016C19F1
:101070007D098E099F0986169706A806B90608F00D
:1010800076CF80919B010E94DB0510922002109286
:101090001F0210922202F801108283E090E0019773
:1010A000F1F7DF91CF911F910F91FF90EF90DF90BB
:1010B000CF90BF90AF909F908F9008959D91919306
:1010C0008F5F6BCF85EEA6CF80919C0190919D01A3
:1010D000A0919E01B0919F01892B8A2B8B2B09F443
:1010E0009FCF0E949C0380909C0190909D01A090B6
:1010F0009E01B0909F016C197D098E099F0986168B
:101100009706A806B90608F08BCFBBCF0E948C07C4
:10111000809106078F5F80930607803190F086E00C
:1011200097E00E949F078091F50291E09093220240
:10113000809321021092200210921F0280E40C94EE
:101140008C0708950F931F93CF93DF938C01EB01CE
:101150000E94910781E20E948C0780E00E948C0728
:101160008091F80290E0081719070CF4C8010E945A
:101170008C0782E20E948C0780E00E948C0780919D
:10118000F60290E0C817D9070CF4CE010E948C0734
:1011900086E097E0DF91CF911F910F910C949F070C
:1011A000CF93DF936091F60270E08091F80290E0B7
:1011B0000E94A2088091F50291E090932202809310
:1011C00021021092200210921F0280E40E948C07DC
:1011D000CBEFD2E089910E94860886E0CB3FD8070A
:1011E000C9F786E097E0DF91CF910C949F07CF93EA
:1011F000C82F8091F50291E0909322028093210202
:101200001092200210921F0280E80E948C078C2FFF
:101210000E948C0786E097E0CF910C949F070F9374
:101220001F930130110559F10230110509F44AC02C
:10123000012B11F5FC01E15FFB4F0190F081E02DE6
:101240002E0F3F2F311DB3E0220F331FBA95E1F768
:10125000FC01EF5EFB4F0190F081E02D13E0F5956E
:10126000E7951A95E1F7E20FF31FE40FF11DE80F80
:10127000F91F8285682B62871F910F910895FC01E9
:10128000E15FFB4F0190F081E02D2E0F3F2F311DCC
:10129000E3E0220F331FEA95E1F7FC01EF5EFB4F1D
:1012A0000190F081E02DA3E0F595E795AA95E1F78F
:1012B000E20FF31FE40FF11DE80FF91F609582851F
:1012C0006823D9CFFC01E15FFB4F0190F081E02D55
:1012D0002E0F3F2F311D53E0220F331F5A95E1F798
:1012E000FC01EF5EFB4F0190F081E02D73E0F5957E
:1012F000E7957A95E1F7820F931FE80FF91FE40F46
:10130000F11DB9CF2F923F924F925F926F927F92D1
:101310008F929F92AF92BF92CF92DF92EF92FF9205
:101320000F931F93CF93DF93CDB7DEB767970FB6B9
:10133000F894DEBF0FBECDBF9F8B8E8BF62EFC01C7
:10134000E25FFB4F208130E03396845F9B4F6C015E
:101350004DE064133DC08E899F89815F9B4FDC0106
:101360001D921C9281E0F12C4E895F89455F5B4F95
:10137000DA016C916623D1F14E895F89435F5B4F3F
:10138000DA019C910E891F89015F1B4FD8014D9195
:101390005C91B6E09B9F400D511D1124AE89BF8921
:1013A00017969C919417150609F004F58081918198
:1013B000D8011D921C92820F931F918380834E89C6
:1013C0005F894D5E5B4F80818770DA018C9310C01E
:1013D000BAE080E06B13C8CF80819181820F931FA8
:1013E0009183808381E0D6018C93BDCF8111E7CFBB
:1013F00080819181280F391FEE89FF89868190E0D5
:101400000196821793070CF4F12CD6018C91882356
:1014100059F1662349F1B0E2FB1226C0EE89FF893B
:10142000E15FFB4F80819181892B09F048C0F60173
:10143000108281E090E067960FB6F894DEBF0FBE91
:10144000CDBFDF91CF911F910F91FF90EF90DF9073
:10145000CF90BF90AF909F908F907F906F905F9054
:101460004F903F902F900895F7FE50C0EE89FF896E
:10147000EC5EFB4F2FEB2F15C0F08081813D39F4DE
:1014800031E9F31241C0F082E0ECFE2E18C0803D3D
:1014900039F441E8F41238C0F082F5E9FF2E0FC0AC
:1014A000823E29F450E8F5122FC0F082C2CF803876
:1014B00059F564E9F61228C0F082ADE2FA2E8E8961
:1014C0009F89815F9B4F9A838983DC012D913C9199
:1014D000EE89FF89E35FFB4FFB87EA878081A901E3
:1014E00066E0869F400D511D1124CA0157FD07C0BB
:1014F000AE89BF8917964C91421713065CF4E981B7
:10150000FA819183808395CFF082D9CFFF2009F4AF
:1015100090CFD5CFF0EEFF0DF9878F2F90E0AC0183
:101520004150510925E0249FB001259F700D1124E1
:101530007F876E8760557109798B688B8F96289F9E
:10154000D001299FB00D1124BD87AC87AB5EB109D6
:10155000BB8BAA8BD12CC12CEA85FB85FC83EB834A
:101560002E893F892D5E3B4F3E832D834E895F89B7
:101570004A5E5B4F58874F8355E060E0C516B9F06F
:101580006985EA89FB89603668F080E88F0DEC8513
:10159000FD85803138F07985E889F989703A10F055
:1015A000EE85FF85E859FF4FEC0DFD1D6491EE8936
:1015B000FF89E65FFB4F808181116095AB81BC8123
:1015C0009C91913009F053C0EE89FF89E15FFB4F98
:1015D0008081918197FD35C0EE89FF892781281789
:1015E00019067CF1AD81BE818C91EF81F885008177
:1015F00010E020E040E0882301F1A62EB12CB501D7
:1016000001C0660F8A95EAF720E040E08E899F8945
:101610000E940F09AF81B8850C9110E0ED81FE8129
:10162000808128E030E0281B3109B50102C07595A2
:1016300067952A95E2F720E041E08E899F890E9414
:101640000F09EA85FB858081A981BA812D913C91A2
:101650001197820F932F911D8D939C93BFEFCB1AFF
:10166000DB0AE6E0CE16D10409F086CFE2CE30E008
:1016700020E080E0812C912C5401E62FF0E0AF01B6
:10168000022E02C0559547950A94E2F741705527FE
:10169000692F680F8617F1F0412C512C32014394C9
:1016A000082E04C0440C551C661C771C0A94D2F703
:1016B0004115510531F084289528A628B7288F5F59
:1016C000E9CF409450946094709484209520A62093
:1016D000B720F5CF2F5F3F4F2830310581F6312CF1
:1016E0004E895F89415F5B4F5D8B4C8BAC89BD89B7
:1016F0008D919C91EB81FC812081321608F0A1CF65
:10170000830D911D97FD47C0AE89BF8917962C9117
:10171000281719060CF43FC0212CE12CED81FE8125
:101720002081AB81BC818C912816B0F5B8E02B9E4E
:10173000C00111242401350104C0769467945794A4
:1017400047948A95D2F7EF81F885008110E0211146
:1017500009C0232D422D642D8E899F890E940F0977
:101760002394DCCF6E2D70E088E090E0821B91091D
:1017700002C0759567958A95E2F7842D01C0880FA0
:101780002A95EAF7682B232D422D8E899F890E9486
:101790000F09E42CE5CFE12CAD81BE818C9188232B
:1017A000B9F0EF81F885008110E06E2D70E028E03F
:1017B00030E0281B310902C0759567952A95E2F73C
:1017C000232DAB81BC814C918E899F890E940F098A
:1017D00033948CCF089590E080E00895BF92CF922B
:1017E000DF92EF92FF920F931F93CF93DF93EC0161
:1017F000B62EC72E8D85811105C0CE010E94EC0446
:1018000081110EC01B861D861C8680E0DF91CF9162
:101810001F910F91FF90EF90DF90CF90BF900895B0
:1018200040E060EFCE010E94990401E0E12CD12C50
:1018300011E0CE010E944604F82ECE010E9446041B
:1018400091E0F91218C0813099F51134D8F2DB8695
:10185000D11002C081E08D878B81882399F2239675
:10186000EB2DFC2DCF01089629912193E817F9075C
:10187000D9F781E0CBCFEE2DF0E0F8120FC08B85C9
:101880001817A0F4DE01AE0FBF1F13968C918023B2
:1018900079F4F12C193008F41C87D12EEC0FFD1FC0
:1018A0008381902F9095892383830AC08113F1CF80
:1018B000FE01EE0DF11D8381802B8383FF24F394C1
:1018C0006F2DCE010E946A041F5F000F11F4E39494
:1018D00001E087E08E1508F0ACCFB7CFFB01019097
:1018E0000020E9F73197AF01461B570BDC01ED9162
:1018F000FC910280F381E02D09948F929F92AF9228
:10190000BF920F931F93CF93DF93CDB7DEB7A1970D
:101910000FB6F894DEBF0FBECDBF19A2423008F457
:101920004AE08E010F5D1F4F842E912CB12CA12C0B
:10193000A50194010E946A14E62FB901CA01EA3098
:1019400004F5E05DD801EE938D01232B242B252B8C
:1019500079F790E080E0109729F0BD0181EF92E0E7
:101960000E946E0CA1960FB6F894DEBF0FBECDBFDD
:10197000DF91CF911F910F91BF90AF909F908F906B
:101980000895E95CDFCFCF92DF92EF92FF920F9341
:101990001F93CF93DF93CDB7DEB761970FB6F8945F
:1019A000DEBF0FBECDBF81E0809314028091D302D1
:1019B00081114EC060E070E08EEF92EC0E94A614A0
:1019C0009B01709313026093120221388FEF380746
:1019D00009F0FCC08EE180935A0185E090E090937D
:1019E00001078093000788E090E0909303078093BD
:1019F00002071092040783E08093FE0688E180933B
:101A0000FF0666E371E081EF92E00E946E0C809128
:101A10005A01863008F4E2C081E0809311028EE121
:101A200080935A016091110285E00E9414030E9484
:101A3000D00861960FB6F894DEBF0FBECDBFDF9120
:101A4000CF911F910F91FF90EF90DF90CF9008956D
:101A5000E091D502F091D60213861586148612867F
:101A60001186108617821682158214821382BE0197
:101A7000665F7F4F8091D5029091D6020E94EE0B57
:101A8000882309F497CF67E0CE010A960E942F04BD
:101A9000998989138FCFBE016F5F7F4FCE010A9660
:101AA0000E942405882309F485CF8A81C12CD12C7A
:101AB000760187FF06C0C12CD12CF8EFEF2EFF2452
:101AC000FA949A8549819B33E9F52D8127FF3AC025
:101AD00040FD70CF042F10E030E020E073E0000FF5
:101AE000111F221F331F7A95D1F7B901A801407E3B
:101AF00057706627772790E0B0E0A0E08C019D0149
:101B0000EBE0000F111F221F331FEA95D1F7042BC2
:101B1000152B262B372B0C291D292E293F2901385F
:101B200054EE15075FEF250735070CF443CFC901C5
:101B3000B8010E94DE1420E030E040E05CE30E9447
:101B400042153CCF082F10E0102F0027110F110F66
:101B5000110F88E0489FA0011124042B152B012EA2
:101B6000000C220B330B0C291D292E293F29903103
:101B7000B1F66885662399F270E08F81AB01481B4E
:101B80005109CA019695982F8827979587950E94A5
:101B90005614CB01770FAA0BBB0B53E0000F111F9C
:101BA000221F331F5A95D1F7007827703327005230
:101BB000110921093109800F911FA21FB31F97013D
:101BC0008601082B192B2A2B3B2BA9CF80911502BC
:101BD00090E0281739072CF410925A011092110244
:101BE00021CF821793070CF012CF80915A018F5F9B
:101BF00080935A010CCF85ED8093BC0080919C01AD
:101C000090919D01A0919E01B0919F010796A11D09
:101C1000B11D23E0B695A795979587952A95D1F79D
:101C20002091BC0024FD03C01092E501089540916D
:101C30009C0150919D0160919E0170919F01452BE7
:101C4000462B472B69F30097A105B10541F02AE225
:101C50002A95F1F700C00197A109B109E1CF809160
:101C60009B010C94DB051F920F920FB60F9211246B
:101C70002F933F938F939F93AF93BF9380911702BE
:101C800090911802A0911902B0911A023091160297
:101C900023E0230F2D3758F50196A11DB11D209388
:101CA00016028093170290931802A0931902B09322
:101CB0001A0280911B0290911C02A0911D02B0910A
:101CC0001E020196A11DB11D80931B0290931C0260
:101CD000A0931D02B0931E02BF91AF919F918F916F
:101CE0003F912F910F900FBE0F901F90189526E8EF
:101CF000230F0296A11DB11DD2CF1F920F920FB6D6
:101D00000F9211242F933F934F935F936F937F9381
:101D10008F939F93AF93BF93EF93FF9383E292E0F0
:101D20000E947102FF91EF91BF91AF919F918F91AE
:101D30007F916F915F914F913F912F910F900FBEC7
:101D40000F901F9018951F920F920FB60F921124AB
:101D50002F938F939F93EF93FF93E0913302F09132
:101D600034028081E0913902F0913A0282FD1BC079
:101D7000908180913C028F5F8F7320913D0282178A
:101D800041F0E0913C02F0E0ED5DFD4F958F8093D6
:101D90003C02FF91EF919F918F912F910F900FBE79
:101DA0000F901F9018958081F4CF1F920F920FB65D
:101DB0000F9211242F933F934F935F936F937F93D1
:101DC0008F939F93AF93BF93EF93FF938091B9004D
:101DD000887F803609F44AC0F0F5883209F4A7C03C
:101DE00018F5803109F49BC0B8F4882309F4F9C0D0
:101DF000883009F494C0FF91EF91BF91AF919F910A
:101E00008F917F916F915F914F913F912F910F90A3
:101E10000FBE0F901F901895883109F488C080324A
:101E200051F78093E40114C0803409F49DC040F45C
:101E30008033B9F38833F9F68093E40185ECB0C0C0
:101E4000803509F485C0883509F496C0883499F640
:101E50000E94FB0DD0CF883909F48CC038F5883743
:101E600029F050F4883611F0803729F683E080930A
:101E7000E5011092E30157C0883809F47BC080392E
:101E800019F0803809F0B7CF8091E301803208F073
:101E900071C0E091E30181E08E0F8093E3018091B6
:101EA000BB00F0E0ED53FE4F80833DC0803B39F036
:101EB000E0F4803A09F479C0883A09F09CCF84E0D4
:101EC0008093E5011092C2011092C101E0910D02D0
:101ED000F0910E0209958091C10181110FC081E03E
:101EE0008093C1011092A10109C0803C09F4A6CFE2
:101EF000883C09F4A3CF883B09F07DCFE091C20173
:101F000081E08E0F8093C201F0E0EF55FE4F80819B
:101F10008093BB009091C2018091C10129C0809142
:101F20000A028093BB0085EC8093BC0064CF909143
:101F3000090280910802981758F5E091090281E0A2
:101F40008E0F80930902F0E0E851FE4F8081E9CFC7
:101F5000E091090281E08E0F809309028091BB001D
:101F6000F0E0E851FE4F80839091090280910802D1
:101F70009817C8F285E8D8CFE091090281E08E0F6A
:101F8000809309028091BB00F0E0E851FE4F80830E
:101F90008091E70181115CCF81E08093E60184EAC2
:101FA0008093BC001092E50126CF85EC8093BC00A5
:101FB0001092E5018091E301803230F4E091E30179
:101FC000F0E0ED53FE4F10826091E30170E0E0918C
:101FD0000B02F0910C0283EC91E009951092E30161
:101FE0000ACF1092E40134CFCF93DF93EC01862F18
:101FF0002CE330E03C832B8324EF31E03E832D83C0
:1020000038872F8320E931E03A8729871B861C8691
:102010001D861E861F86188A198A1A8A1B8A6A8359
:1020200099819F7D977F998362E00E9460038A81F6
:1020300090E0FC01E751FC4FE491F0E0EE0FFF1F50
:10204000E152FC4F259134913D8B2C8BFC01E350E8
:10205000FC4FE491EE8B89818B7E8D7F8983DF91AC
:10206000CF910895CF93E3E2F2E01382128288EEDB
:1020700093E0A0E0B0E084839583A683B7832AE051
:1020800031E03183208325EC30E03587248724EC50
:1020900030E03787268720EC30E0318B208B21EC35
:1020A00030E0338B228B22EC30E0358B248B26EC16
:1020B00030E0378B268B118E128E138E148EE0EC4F
:1020C000F2E01382128284839583A683B7832CE186
:1020D00031E031832083E1E4F7E021E030E0328732
:1020E000218781839283A383B4831582168217820A
:1020F000108683EC9CE0928B818B1082138A148A69
:10210000158A168A138614861586168663E08AE277
:1021100097E00E94F40F64E083E197E00E94F40FDF
:10212000E1EFF2E0138212828EE291E091838083EC
:102130008CE3848387E085838FE386838FE78783BF
:1021400080E094E0918780871092FB061092FC0655
:102150001092FD06C1E0C093FE0688E08093FF0662
:1021600010920107109200071092030710920207C5
:10217000109204071092060782E0809307071092DE
:10218000120760E00E946003EFEFF3E0E491A3EE3A
:10219000B2E0EC93EBEEF3E0E491F0E0EE0FFF1F22
:1021A000E152FC4F8591949112969C938E931197D6
:1021B0001B961C921B971D961C921D971C961C9299
:1021C0001C971A961C921A9719961C921997189692
:1021D0001C92189717961C92179716961C92169792
:1021E00015961C92159714961C92149713961C9290
:1021F0001397ECECF2E017821086108289E083835B
:10220000C483C583C6831182168A158A8FEF838B98
:10221000148AB287A187CF910895CF93DF93CDB76A
:10222000DEB761970FB6F894DEBF0FBECDBF7894CE
:1022300084B5826084BD84B5816084BD85B58260CB
:1022400085BD85B5816085BD80916E00816080937C
:102250006E001092810080918100826080938100E5
:1022600080918100816080938100809180008160F5
:10227000809380008091B10084608093B100809150
:10228000B00081608093B00080917A008460809378
:102290007A0080917A00826080937A0080917A003F
:1022A000816080937A0080917A00806880937A00C0
:1022B0001092C10013E001E0E091D502F091D60246
:1022C000138615861486128611861086178216824A
:1022D0001582148213821092D3021092D40262E308
:1022E00070E080E090E00E94C103BE01665F7F4F16
:1022F0008091D5029091D6020E94EE0B882309F4BA
:102300007AC067E0CE010A960E942F04998989134A
:10231000ECCF8091D3028F5F8093D3028A8588327D
:1023200031F008F04EC0803111F08232F1F6809128
:10233000D4028F5F8093D4028091CC02811128C097
:102340008091D5029091D6020E94EC04BE01665F96
:102350007F4F8091D5029091D6020E94CD0440E03B
:1023600064EB8091D5029091D6020E9499048091ED
:10237000D5029091D6020E944604F82E8091D50293
:102380009091D6020E94EC04F11002C00093CC029E
:102390008A85803109F1BE016F5F7F4FCE010A96B9
:1023A0000E942405882359F08D819A859B3311F46E
:1023B00087FD12C08F3391F058F48F31C1F080E067
:1023C0000EC08B3309F4B3CF823409F08ECFAFCF78
:1023D0008F3579F08F3799F78CE001C08AE09091C2
:1023E000CF02981708F081CF8093CF027ECF89E08B
:1023F000F6CF8BE0F4CF8091D302811103C011504E
:1024000009F05ACF8091520790915307892B11F10F
:1024100080914A0790914B07019709F000C20E94F2
:10242000F403609354077093550780935607909375
:10243000570781E08093410710924C0710924D0797
:1024400010924E0710924F0781E090E09093510751
:10245000809350071092100210920F0210922002E7
:1024600010921F020E94BD0580E094E090930E023E
:1024700080930D0281E094E090930C0280930B0214
:102480000E94910708EA13E0F80184910E948608EF
:102490000F5F1F4FF3E0073B1F07B1F786E097E0A0
:1024A0000E949F070E9491078AED0E94860882E1A0
:1024B0000E94860888EA0E9486088FE30E948608A8
:1024C00086E097E00E949F07109201071092000794
:1024D0001092030710920207109204076091F6020F
:1024E00070E08091F80290E00E94A2084091F90209
:1024F0005091FA0270E060E08BEF92E00E94D715F5
:102500008091020787708093040781E090E00E9429
:1025100040148093150265E081E00E94600330E082
:10252000832E30E0932E05E010E048E0E42EF12CFD
:1025300056E4C52ED12C68E2A62EB12C93E0292EAC
:1025400028E1322E8091D5029091D6020E94EC04AF
:1025500040E06CEC8091D5029091D6020E949904E3
:102560004091CC0264E48091D5029091D6020E9401
:1025700099040E94F4032B013C018091D00288232E
:10258000E1F08091D102882309F44CC18091CC0202
:10259000811148C18091D5029091D6020E944604D3
:1025A000813059F00E94F40364197509860997096E
:1025B0006E3E72408105910568F380914107882342
:1025C00009F461C080914A0790914B07019709F087
:1025D00052C10E94F40340905407509055076090F8
:1025E0005607709057079B01AC012419350946091D
:1025F00057094090420750904307609044077090FD
:1026000045072415350546055705E8F1609354073D
:1026100070935507809356079093570780914C0706
:1026200090914D07A0914E07B0914F0740914607FA
:10263000509147076091480770914907481B590B13
:102640006A0B7B0B413051056105710561F48F3FC9
:10265000EFEF9E07AE07BE0731F0109241071092D0
:102660005107109250070196A11DB11D80934C0790
:1026700090934D07A0934E07B0934F07E0915207F8
:10268000F091530709958AE297E00E94820683E160
:1026900097E00E9482068AE297E00E944F07882313
:1026A000A1F063E471E083E292E00E946E0C6CE4BE
:1026B00071E083E292E00E946E0C809115028F5FC0
:1026C0008093150281E08093140283E197E00E94D9
:1026D0004F078823A1F06FE471E083E292E00E944B
:1026E0006E0C6CE471E083E292E00E946E0C8091CB
:1026F000150281508093150281E08093140280912D
:1027000015028F3118F0FEE1F09315028091150249
:10271000853018F425E02093150280911402882357
:1027200009F471C0109214024091F9025091FA021A
:1027300070E060E08BEF92E00E94D71510930107E4
:1027400000930007F0920307E0920207109204073B
:1027500084E08093FE06E0E2E093FF0660911502BC
:1027600070E090E080E04AE00E947D0C68E571E056
:1027700081EF92E00E946E0C7090150281E090E073
:102780000E944014781629F0672D81E090E00E94A5
:1027900048142092FE063092FF06D0920107C092A4
:1027A0000007B0920307A09202071092040740901E
:1027B000120250901302052C000C660877084AE0BC
:1027C000C301B20177FE0DC06DE281EF92E00E947D
:1027D000820966277727CB0164197509860997094D
:1027E0004AE00E947D0C68E571E081EF92E00E9472
:1027F0006E0C80911102882309F440C087EA0E9480
:10280000F7080E94D0088114910409F49BCE0E941D
:102810000003882309F492CE0E9400008FCE0E940C
:102820009C03FFCDE091CF02E9508EEE92E0E330C1
:1028300038F4F0E0EE0FFF1FE050FF4F80819181F0
:102840002C01712C612C8091CD02882329F060E04D
:102850008091CE020E941403C301B2010E94C10301
:102860008091CD02882309F4A8CE61E08091CE0248
:102870000E941403A2CE0E949C03ADCE86EABFCF75
:10288000F999FECF92BD81BDF89A992780B5089538
:10289000262FF999FECF1FBA92BD81BD20BD0FB67C
:1028A000F894FA9AF99A0FBE0196089597FB072EAD
:1028B00016F4009407D077FD09D00E948C1407FC11
:1028C00005D03EF4909581959F4F08957095619540
:1028D0007F4F0895A1E21A2EAA1BBB1BFD010DC05C
:1028E000AA1FBB1FEE1FFF1FA217B307E407F507C0
:1028F00020F0A21BB30BE40BF50B661F771F881F9C
:10290000991F1A9469F760957095809590959B0131
:10291000AC01BD01CF010895AA1BBB1B51E107C04B
:10292000AA1FBB1FA617B70710F0A61BB70B881F5F
:10293000991F5A95A9F780959095BC01CD010895EE
:10294000EE0FFF1F0590F491E02D09940E94AD1445
:102950006894B1110C943C1508950E94211588F0DB
:102960009F5798F0B92F9927B751B0F0E1F0660F53
:10297000771F881F991F1AF0BA95C9F714C0B13094
:1029800091F00E943B15B1E008950C943B15672F20
:10299000782F8827B85F39F0B93FCCF386957795C3
:1029A0006795B395D9F73EF49095809570956195AC
:1029B0007F4F8F4F9F4F0895E89409C097FB3EF4D7
:1029C00090958095709561957F4F8F4F9F4F99237C
:1029D000A9F0F92F96E9BB279395F69587957795FA
:1029E0006795B795F111F8CFFAF4BB0F11F460FFBA
:1029F0001BC06F5F7F4F8F4F9F4F16C0882311F012
:102A000096E911C0772321F09EE8872F762F05C025
:102A1000662371F096E8862F70E060E02AF09A95C0
:102A2000660F771F881FDAF7880F9695879597F9B5
:102A3000089557FD9058440F551F59F05F3F71F0AE
:102A40004795880F97FB991F61F09F3F79F0879515
:102A50000895121613061406551FF2CF4695F1DF9E
:102A600008C0161617061806991FF1CF869571052E
:102A7000610508940895E894BB2766277727CB0162
:102A800097F908950E9455150C94C6150E94B81523
:102A900038F00E94BF1520F0952311F00C94AF156B
:102AA0000C94B51511240C943C150E94191570F363
:102AB000959FC1F3950F50E0551F629FF001729FE3
:102AC000BB27F00DB11D639FAA27F00DB11DAA1FF2
:102AD000649F6627B00DA11D661F829F2227B00D3F
:102AE000A11D621F739FB00DA11D621F839FA00DCA
:102AF000611D221F749F3327A00D611D231F849F1A
:102B0000600D211D822F762F6A2F11249F57504070
:102B10009AF0F1F088234AF0EE0FFF1FBB1F661FEB
:102B2000771F881F91505040A9F79E3F510580F0B4
:102B30000C94AF150C943C155F3FE4F3983ED4F32E
:102B4000869577956795B795F795E7959F5FC1F758
:102B5000FE2B880F911D9695879597F9089597F903
:102B60009F6780E870E060E008959FEF80EC089533
:102B700000240A941616170618060906089500245C
:102B80000A9412161306140605060895092E0394D6
:102B9000000C11F4882352F0BB0F40F4BF2B11F44A
:102BA00060FF04C06F5F7F4F8F4F9F4F0895DC0120
:102BB00001C06D9341505040E0F70895F894FFCF65
:102BC0005E00BC00770100000000930202043402A2
:102BD000E002650243025702000000005306260689
:102BE000EB0BFC051F060C06FD050000000082092A
:102BF0000204EB0BEA0BD09ED188D0B8D0B1D0BA8A
:102C0000D0B000427574746F6E2031000D0A00421E
:0A2C10007574746F6E2032006300CB
:00000001FF
